:020000040000FA
:020000000528D1
:040002000034003492
:020008002028AE
:06000A0053200000640019
:100010000628A501A601A7016430A402031C12282A
:10002000A50A0C286430A40715280A30A402031C72
:100030001B28A60A15280A30A4072408A7000800D0
:100040008B130B1926288C1A4C2851280B1186303B
:1000500081000314880D88192F28FE3088000818A5
:100060003528270841208600512888183B28260873
:100070004120860051280819512825084120860072
:10008000512882073F3406345B344F3466346D3474
:100090007D3407347F3467348C121A08A400092099
:1000A00051288B17090083120313860188018809E0
:1000B000831603138601880183160313071387171A
:1000C0009801981418159816193099008312031383
:1000D000980198171816831603138C1683120313AE
:1000E0008B160B178B17831681128111011181104A
:1000F000011483120B1186308100A501A601A7010E
:08010000FD3088000800080032
:00000001FF
