:020000040000FA
:020000000528D1
:040002000034003492
:02000800472887
:06000A004E2007208312C6
:1000100003130630A300A30B0B281F151F190E286E
:100020001E08A40016202D2040200728A501A601A7
:10003000A7016430A402031C1F28A50A19286430F4
:10004000A40722280A30A402031C2828A60A222872
:100050000A30A4072408A700080008303B203B20F2
:100060003B203B20253084000008303E3B20840AA2
:10007000841D3428080099000C1E3C280C1208002E
:10008000A801A901A80F4228A90F422808008B1334
:100090008C1E4C288C124C288B17090083160313D6
:1000A0000713871719309900980198141815981696
:1000B00098178312031398019817181683160313C1
:1000C0008501850900309F008312031341309F0092
:1000D000831603138C16831203130B178B17003030
:0400E000A400080070
:00000001FF
