:020000040000FA
:020000000528D1
:040002000034003492
:0200080041288D
:06000A00482007208312CC
:1000100003131F151F190A281E08A30011202820EA
:100020000728A401A501A6016430A302031C1A2815
:10003000A40A14286430A3071D280A30A302031C55
:100040002328A50A1D280A30A3072308A6000800B4
:100050000830352035203520243084000008303E1B
:100060003520840A841D2E28080099000C1E36288D
:100070000C120800A701A801A70F3C28A80F3C28D4
:1000800008008B138C1E46288C1246288B170900FB
:1000900083160313071387171930990098019814D2
:1000A00018159816981783120313980198171816A5
:1000B000831603138501850900309F008312031303
:1000C00041309F00831603138C16831203130B1702
:0800D0008B170030A3000800AB
:00000001FF
