:020000040000FA
:020000000528D1
:040002000034003492
:020008003320A3
:06000A0060200720000049
:100010006400072882073F3406345B344F3466346B
:100020006D347D3407347F346734A501A601A70100
:100030006430A402031C1E28A50A18286430A407F3
:1000400021280A30A402031C2728A60A21280A30E6
:10005000A4072408A7000800A801A901A80F2E28BA
:10006000A90F2E280800831203138B138C1A3B2828
:100070000C1A5C285E28831203131A0883120313D8
:10008000A4001520081027080A20860008142C2038
:10009000881026080A20860088142C2008112508BC
:1000A0000A20860008152C20881100300A208600BE
:1000B00088152C208C125E280C125E288B170900E4
:1000C00083120313860188018809831603138601AE
:1000D00088018316031307138717193099009801B5
:1000E0009814181598168312031398019817181668
:1000F000831603138C16831203130B178B17080038
:00000001FF
