:020000040000FA
:020000000528D1
:040002000034003492
:02000800472887
:06000A00552007208312BF
:1000100003130630A300A30B0B281F1564001F1940
:100020000E281E083A2040200728A501A601A70196
:100030006430A402031C1E28A50A18286430A407F3
:1000400021280A30A402031C2728A60A21280A30E6
:10005000A4072408A700080008303A203A203A20D4
:100060003A20253084000008303E3A20840A841D5E
:1000700033280800990064000C1E3B280C1208006D
:10008000A801A901A80F4228A90F4228080083123D
:1000900003138B138C1A4F280C1A512853288C12D7
:1000A00053280C1253288B170900831603130713C8
:1000B00087171930990098019814181598169817F1
:1000C00083120313980198171816831603138501DA
:1000D000850900309F008312031341309F0083166F
:0E00E00003138C16831203130B178B170800E3
:00000001FF
